{
  "contractName": "ERC20",
  "abi": [
    {
      "inputs": [
        {
          "name": "_name",
          "type": "string"
        }
      ],
      "payable": false,
      "stateMutability": "nonpayable",
      "type": "constructor"
    },
    {
      "anonymous": false,
      "inputs": [
        {
          "indexed": false,
          "name": "_address",
          "type": "address"
        },
        {
          "indexed": false,
          "name": "_balance",
          "type": "uint256"
        }
      ],
      "name": "Balance",
      "type": "event"
    },
    {
      "anonymous": false,
      "inputs": [
        {
          "indexed": true,
          "name": "from",
          "type": "address"
        },
        {
          "indexed": true,
          "name": "to",
          "type": "address"
        },
        {
          "indexed": false,
          "name": "value",
          "type": "uint256"
        }
      ],
      "name": "Transfer",
      "type": "event"
    },
    {
      "anonymous": false,
      "inputs": [
        {
          "indexed": true,
          "name": "owner",
          "type": "address"
        },
        {
          "indexed": true,
          "name": "spender",
          "type": "address"
        },
        {
          "indexed": false,
          "name": "value",
          "type": "uint256"
        }
      ],
      "name": "Approval",
      "type": "event"
    },
    {
      "constant": true,
      "inputs": [],
      "name": "printName",
      "outputs": [
        {
          "name": "",
          "type": "uint256"
        }
      ],
      "payable": false,
      "stateMutability": "view",
      "type": "function"
    },
    {
      "constant": true,
      "inputs": [],
      "name": "totalSupply",
      "outputs": [
        {
          "name": "",
          "type": "uint256"
        }
      ],
      "payable": false,
      "stateMutability": "view",
      "type": "function"
    },
    {
      "constant": true,
      "inputs": [
        {
          "name": "owner",
          "type": "address"
        }
      ],
      "name": "balanceOf",
      "outputs": [
        {
          "name": "",
          "type": "uint256"
        }
      ],
      "payable": false,
      "stateMutability": "view",
      "type": "function"
    },
    {
      "constant": true,
      "inputs": [
        {
          "name": "owner",
          "type": "address"
        },
        {
          "name": "spender",
          "type": "address"
        }
      ],
      "name": "allowance",
      "outputs": [
        {
          "name": "",
          "type": "uint256"
        }
      ],
      "payable": false,
      "stateMutability": "view",
      "type": "function"
    },
    {
      "constant": false,
      "inputs": [
        {
          "name": "to",
          "type": "address"
        },
        {
          "name": "value",
          "type": "uint256"
        }
      ],
      "name": "transfer",
      "outputs": [
        {
          "name": "",
          "type": "bool"
        }
      ],
      "payable": false,
      "stateMutability": "nonpayable",
      "type": "function"
    },
    {
      "constant": false,
      "inputs": [
        {
          "name": "spender",
          "type": "address"
        },
        {
          "name": "value",
          "type": "uint256"
        }
      ],
      "name": "approve",
      "outputs": [
        {
          "name": "",
          "type": "bool"
        }
      ],
      "payable": false,
      "stateMutability": "nonpayable",
      "type": "function"
    },
    {
      "constant": false,
      "inputs": [
        {
          "name": "from",
          "type": "address"
        },
        {
          "name": "to",
          "type": "address"
        },
        {
          "name": "value",
          "type": "uint256"
        }
      ],
      "name": "transferFrom",
      "outputs": [
        {
          "name": "",
          "type": "bool"
        }
      ],
      "payable": false,
      "stateMutability": "nonpayable",
      "type": "function"
    },
    {
      "constant": false,
      "inputs": [
        {
          "name": "spender",
          "type": "address"
        },
        {
          "name": "addedValue",
          "type": "uint256"
        }
      ],
      "name": "increaseAllowance",
      "outputs": [
        {
          "name": "",
          "type": "bool"
        }
      ],
      "payable": false,
      "stateMutability": "nonpayable",
      "type": "function"
    },
    {
      "constant": false,
      "inputs": [
        {
          "name": "spender",
          "type": "address"
        },
        {
          "name": "subtractedValue",
          "type": "uint256"
        }
      ],
      "name": "decreaseAllowance",
      "outputs": [
        {
          "name": "",
          "type": "bool"
        }
      ],
      "payable": false,
      "stateMutability": "nonpayable",
      "type": "function"
    }
  ],
  "bytecode": "0x60806040523480156200001157600080fd5b506040516200110b3803806200110b8339810180604052810190808051820192919050505080600090805190602001906200004e92919062000277565b506200006b33600a620000de640100000000026401000000009004565b7f134e340554ff8a7d64280a2a28b982df554e2595e5bf45cd39368f31099172a633600a604051808373ffffffffffffffffffffffffffffffffffffffff1673ffffffffffffffffffffffffffffffffffffffff1681526020018281526020019250505060405180910390a15062000326565b600073ffffffffffffffffffffffffffffffffffffffff168273ffffffffffffffffffffffffffffffffffffffff16141515156200011b57600080fd5b6200014081600354620002556401000000000262000d88179091906401000000009004565b600381905550620001a881600160008573ffffffffffffffffffffffffffffffffffffffff1673ffffffffffffffffffffffffffffffffffffffff16815260200190815260200160002054620002556401000000000262000d88179091906401000000009004565b600160008473ffffffffffffffffffffffffffffffffffffffff1673ffffffffffffffffffffffffffffffffffffffff168152602001908152602001600020819055508173ffffffffffffffffffffffffffffffffffffffff16600073ffffffffffffffffffffffffffffffffffffffff167fddf252ad1be2c89b69c2b068fc378daa952ba7f163c4a11628f55a4df523b3ef836040518082815260200191505060405180910390a35050565b60008082840190508381101515156200026d57600080fd5b8091505092915050565b828054600181600116156101000203166002900490600052602060002090601f016020900481019282601f10620002ba57805160ff1916838001178555620002eb565b82800160010185558215620002eb579182015b82811115620002ea578251825591602001919060010190620002cd565b5b509050620002fa9190620002fe565b5090565b6200032391905b808211156200031f57600081600090555060010162000305565b5090565b90565b610dd580620003366000396000f300608060405260043610610099576000357c0100000000000000000000000000000000000000000000000000000000900463ffffffff168063095ea7b31461009e57806318160ddd1461010357806323b872dd1461012e57806339509351146101b357806370a0823114610218578063a457c2d71461026f578063a9059cbb146102d4578063bf7297a214610339578063dd62ed3e14610364575b600080fd5b3480156100aa57600080fd5b506100e9600480360381019080803573ffffffffffffffffffffffffffffffffffffffff169060200190929190803590602001909291905050506103db565b604051808215151515815260200191505060405180910390f35b34801561010f57600080fd5b50610118610508565b6040518082815260200191505060405180910390f35b34801561013a57600080fd5b50610199600480360381019080803573ffffffffffffffffffffffffffffffffffffffff169060200190929190803573ffffffffffffffffffffffffffffffffffffffff16906020019092919080359060200190929190505050610512565b604051808215151515815260200191505060405180910390f35b3480156101bf57600080fd5b506101fe600480360381019080803573ffffffffffffffffffffffffffffffffffffffff16906020019092919080359060200190929190505050610639565b604051808215151515815260200191505060405180910390f35b34801561022457600080fd5b50610259600480360381019080803573ffffffffffffffffffffffffffffffffffffffff169060200190929190505050610870565b6040518082815260200191505060405180910390f35b34801561027b57600080fd5b506102ba600480360381019080803573ffffffffffffffffffffffffffffffffffffffff169060200190929190803590602001909291905050506108b9565b604051808215151515815260200191505060405180910390f35b3480156102e057600080fd5b5061031f600480360381019080803573ffffffffffffffffffffffffffffffffffffffff16906020019092919080359060200190929190505050610af0565b604051808215151515815260200191505060405180910390f35b34801561034557600080fd5b5061034e610b07565b6040518082815260200191505060405180910390f35b34801561037057600080fd5b506103c5600480360381019080803573ffffffffffffffffffffffffffffffffffffffff169060200190929190803573ffffffffffffffffffffffffffffffffffffffff169060200190929190505050610b10565b6040518082815260200191505060405180910390f35b60008073ffffffffffffffffffffffffffffffffffffffff168373ffffffffffffffffffffffffffffffffffffffff161415151561041857600080fd5b81600260003373ffffffffffffffffffffffffffffffffffffffff1673ffffffffffffffffffffffffffffffffffffffff16815260200190815260200160002060008573ffffffffffffffffffffffffffffffffffffffff1673ffffffffffffffffffffffffffffffffffffffff168152602001908152602001600020819055508273ffffffffffffffffffffffffffffffffffffffff163373ffffffffffffffffffffffffffffffffffffffff167f8c5be1e5ebec7d5bd14f71427d1e84f3dd0314c0f7b2291e5b200ac8c7c3b925846040518082815260200191505060405180910390a36001905092915050565b6000600354905090565b60006105a382600260008773ffffffffffffffffffffffffffffffffffffffff1673ffffffffffffffffffffffffffffffffffffffff16815260200190815260200160002060003373ffffffffffffffffffffffffffffffffffffffff1673ffffffffffffffffffffffffffffffffffffffff16815260200190815260200160002054610b9790919063ffffffff16565b600260008673ffffffffffffffffffffffffffffffffffffffff1673ffffffffffffffffffffffffffffffffffffffff16815260200190815260200160002060003373ffffffffffffffffffffffffffffffffffffffff1673ffffffffffffffffffffffffffffffffffffffff1681526020019081526020016000208190555061062e848484610bb8565b600190509392505050565b60008073ffffffffffffffffffffffffffffffffffffffff168373ffffffffffffffffffffffffffffffffffffffff161415151561067657600080fd5b61070582600260003373ffffffffffffffffffffffffffffffffffffffff1673ffffffffffffffffffffffffffffffffffffffff16815260200190815260200160002060008673ffffffffffffffffffffffffffffffffffffffff1673ffffffffffffffffffffffffffffffffffffffff16815260200190815260200160002054610d8890919063ffffffff16565b600260003373ffffffffffffffffffffffffffffffffffffffff1673ffffffffffffffffffffffffffffffffffffffff16815260200190815260200160002060008573ffffffffffffffffffffffffffffffffffffffff1673ffffffffffffffffffffffffffffffffffffffff168152602001908152602001600020819055508273ffffffffffffffffffffffffffffffffffffffff163373ffffffffffffffffffffffffffffffffffffffff167f8c5be1e5ebec7d5bd14f71427d1e84f3dd0314c0f7b2291e5b200ac8c7c3b925600260003373ffffffffffffffffffffffffffffffffffffffff1673ffffffffffffffffffffffffffffffffffffffff16815260200190815260200160002060008773ffffffffffffffffffffffffffffffffffffffff1673ffffffffffffffffffffffffffffffffffffffff168152602001908152602001600020546040518082815260200191505060405180910390a36001905092915050565b6000600160008373ffffffffffffffffffffffffffffffffffffffff1673ffffffffffffffffffffffffffffffffffffffff168152602001908152602001600020549050919050565b60008073ffffffffffffffffffffffffffffffffffffffff168373ffffffffffffffffffffffffffffffffffffffff16141515156108f657600080fd5b61098582600260003373ffffffffffffffffffffffffffffffffffffffff1673ffffffffffffffffffffffffffffffffffffffff16815260200190815260200160002060008673ffffffffffffffffffffffffffffffffffffffff1673ffffffffffffffffffffffffffffffffffffffff16815260200190815260200160002054610b9790919063ffffffff16565b600260003373ffffffffffffffffffffffffffffffffffffffff1673ffffffffffffffffffffffffffffffffffffffff16815260200190815260200160002060008573ffffffffffffffffffffffffffffffffffffffff1673ffffffffffffffffffffffffffffffffffffffff168152602001908152602001600020819055508273ffffffffffffffffffffffffffffffffffffffff163373ffffffffffffffffffffffffffffffffffffffff167f8c5be1e5ebec7d5bd14f71427d1e84f3dd0314c0f7b2291e5b200ac8c7c3b925600260003373ffffffffffffffffffffffffffffffffffffffff1673ffffffffffffffffffffffffffffffffffffffff16815260200190815260200160002060008773ffffffffffffffffffffffffffffffffffffffff1673ffffffffffffffffffffffffffffffffffffffff168152602001908152602001600020546040518082815260200191505060405180910390a36001905092915050565b6000610afd338484610bb8565b6001905092915050565b60006064905090565b6000600260008473ffffffffffffffffffffffffffffffffffffffff1673ffffffffffffffffffffffffffffffffffffffff16815260200190815260200160002060008373ffffffffffffffffffffffffffffffffffffffff1673ffffffffffffffffffffffffffffffffffffffff16815260200190815260200160002054905092915050565b600080838311151515610ba957600080fd5b82840390508091505092915050565b600073ffffffffffffffffffffffffffffffffffffffff168273ffffffffffffffffffffffffffffffffffffffff1614151515610bf457600080fd5b610c4681600160008673ffffffffffffffffffffffffffffffffffffffff1673ffffffffffffffffffffffffffffffffffffffff16815260200190815260200160002054610b9790919063ffffffff16565b600160008573ffffffffffffffffffffffffffffffffffffffff1673ffffffffffffffffffffffffffffffffffffffff16815260200190815260200160002081905550610cdb81600160008573ffffffffffffffffffffffffffffffffffffffff1673ffffffffffffffffffffffffffffffffffffffff16815260200190815260200160002054610d8890919063ffffffff16565b600160008473ffffffffffffffffffffffffffffffffffffffff1673ffffffffffffffffffffffffffffffffffffffff168152602001908152602001600020819055508173ffffffffffffffffffffffffffffffffffffffff168373ffffffffffffffffffffffffffffffffffffffff167fddf252ad1be2c89b69c2b068fc378daa952ba7f163c4a11628f55a4df523b3ef836040518082815260200191505060405180910390a3505050565b6000808284019050838110151515610d9f57600080fd5b80915050929150505600a165627a7a72305820e8ae8d750a85368e6e770e1d25ef3f0479e1cf803e9f99cb84717949c0647d8b0029",
  "source": "pragma solidity ^0.4.24;\n\n\nimport \"./ierc20.sol\";\nimport \"./SafeMath.sol\";\n\n/**\n * @title Standard ERC20 token\n *\n * @dev Implementation of the basic standard token.\n * https://github.com/ethereum/EIPs/blob/master/EIPS/eip-20.md\n * Originally based on code by FirstBlood: https://github.com/Firstbloodio/token/blob/master/smart_contract/FirstBloodToken.sol\n */\ncontract ERC20 is IERC20 {\n  using SafeMath for uint256;\n\n  string name;\n\n  mapping (address => uint256) private _balances;\n\n  mapping (address => mapping (address => uint256)) private _allowed;\n\n  event Balance(address _address, uint256 _balance);\n\n  uint256 private _totalSupply;\n\n  constructor(string _name) public {\n    name = _name;\n    _mint(msg.sender, 10);\n    emit Balance(msg.sender, 10);\n  }\n\n  function printName() public view returns (uint256) {\n    return 100;\n  }\n\n  /**\n  * @dev Total number of tokens in existence\n  */\n  function totalSupply() public view returns (uint256) {\n    return _totalSupply;\n  }\n\n  /**\n  * @dev Gets the balance of the specified address.\n  * @param owner The address to query the balance of.\n  * @return An uint256 representing the amount owned by the passed address.\n  */\n  function balanceOf(address owner) public view returns (uint256) {\n    return _balances[owner];\n  }\n\n  /**\n   * @dev Function to check the amount of tokens that an owner allowed to a spender.\n   * @param owner address The address which owns the funds.\n   * @param spender address The address which will spend the funds.\n   * @return A uint256 specifying the amount of tokens still available for the spender.\n   */\n  function allowance(\n    address owner,\n    address spender\n   )\n    public\n    view\n    returns (uint256)\n  {\n    return _allowed[owner][spender];\n  }\n\n  /**\n  * @dev Transfer token for a specified address\n  * @param to The address to transfer to.\n  * @param value The amount to be transferred.\n  */\n  function transfer(address to, uint256 value) public returns (bool) {\n    _transfer(msg.sender, to, value);\n    return true;\n  }\n\n  /**\n   * @dev Approve the passed address to spend the specified amount of tokens on behalf of msg.sender.\n   * Beware that changing an allowance with this method brings the risk that someone may use both the old\n   * and the new allowance by unfortunate transaction ordering. One possible solution to mitigate this\n   * race condition is to first reduce the spender's allowance to 0 and set the desired value afterwards:\n   * https://github.com/ethereum/EIPs/issues/20#issuecomment-263524729\n   * @param spender The address which will spend the funds.\n   * @param value The amount of tokens to be spent.\n   */\n  function approve(address spender, uint256 value) public returns (bool) {\n    require(spender != address(0));\n\n    _allowed[msg.sender][spender] = value;\n    emit Approval(msg.sender, spender, value);\n    return true;\n  }\n\n  /**\n   * @dev Transfer tokens from one address to another\n   * @param from address The address which you want to send tokens from\n   * @param to address The address which you want to transfer to\n   * @param value uint256 the amount of tokens to be transferred\n   */\n  function transferFrom(\n    address from,\n    address to,\n    uint256 value\n  )\n    public\n    returns (bool)\n  {\n    _allowed[from][msg.sender] = _allowed[from][msg.sender].sub(value);\n    _transfer(from, to, value);\n    return true;\n  }\n\n  /**\n   * @dev Increase the amount of tokens that an owner allowed to a spender.\n   * approve should be called when allowed_[_spender] == 0. To increment\n   * allowed value is better to use this function to avoid 2 calls (and wait until\n   * the first transaction is mined)\n   * From MonolithDAO Token.sol\n   * @param spender The address which will spend the funds.\n   * @param addedValue The amount of tokens to increase the allowance by.\n   */\n  function increaseAllowance(\n    address spender,\n    uint256 addedValue\n  )\n    public\n    returns (bool)\n  {\n    require(spender != address(0));\n\n    _allowed[msg.sender][spender] = (\n      _allowed[msg.sender][spender].add(addedValue));\n    emit Approval(msg.sender, spender, _allowed[msg.sender][spender]);\n    return true;\n  }\n\n  /**\n   * @dev Decrease the amount of tokens that an owner allowed to a spender.\n   * approve should be called when allowed_[_spender] == 0. To decrement\n   * allowed value is better to use this function to avoid 2 calls (and wait until\n   * the first transaction is mined)\n   * From MonolithDAO Token.sol\n   * @param spender The address which will spend the funds.\n   * @param subtractedValue The amount of tokens to decrease the allowance by.\n   */\n  function decreaseAllowance(\n    address spender,\n    uint256 subtractedValue\n  )\n    public\n    returns (bool)\n  {\n    require(spender != address(0));\n\n    _allowed[msg.sender][spender] = (\n      _allowed[msg.sender][spender].sub(subtractedValue));\n    emit Approval(msg.sender, spender, _allowed[msg.sender][spender]);\n    return true;\n  }\n\n  /**\n  * @dev Transfer token for a specified addresses\n  * @param from The address to transfer from.\n  * @param to The address to transfer to.\n  * @param value The amount to be transferred.\n  */\n  function _transfer(address from, address to, uint256 value) internal {\n    require(to != address(0));\n\n    _balances[from] = _balances[from].sub(value);\n    _balances[to] = _balances[to].add(value);\n    emit Transfer(from, to, value);\n  }\n\n  /**\n   * @dev Internal function that mints an amount of the token and assigns it to\n   * an account. This encapsulates the modification of balances such that the\n   * proper events are emitted.\n   * @param account The account that will receive the created tokens.\n   * @param value The amount that will be created.\n   */\n  function _mint(address account, uint256 value) internal {\n    require(account != address(0));\n\n    _totalSupply = _totalSupply.add(value);\n    _balances[account] = _balances[account].add(value);\n    emit Transfer(address(0), account, value);\n  }\n\n  /**\n   * @dev Internal function that burns an amount of the token of a given\n   * account.\n   * @param account The account whose tokens will be burnt.\n   * @param value The amount that will be burnt.\n   */\n  function _burn(address account, uint256 value) internal {\n    require(account != address(0));\n\n    _totalSupply = _totalSupply.sub(value);\n    _balances[account] = _balances[account].sub(value);\n    emit Transfer(account, address(0), value);\n  }\n\n  /**\n   * @dev Internal function that burns an amount of the token of a given\n   * account, deducting from the sender's allowance for said account. Uses the\n   * internal burn function.\n   * @param account The account whose tokens will be burnt.\n   * @param value The amount that will be burnt.\n   */\n  function _burnFrom(address account, uint256 value) internal {\n    // Should https://github.com/OpenZeppelin/zeppelin-solidity/issues/707 be accepted,\n    // this function needs to emit an event with the updated approval.\n    _allowed[account][msg.sender] = _allowed[account][msg.sender].sub(\n      value);\n    _burn(account, value);\n  }\n}\n\ncontract ERC20_2 is IERC20 {\n  using SafeMath for uint256;\n\n  string name;\n\n  mapping (address => uint256) private _balances;\n\n  mapping (address => mapping (address => uint256)) private _allowed;\n\n  event Balance(address _address, uint256 _balance);\n\n  uint256 private _totalSupply;\n\n  constructor(string _name) public {\n    name = _name;\n    _mint(msg.sender, 20);\n    emit Balance(msg.sender, 20);\n  }\n\n  /**\n  * @dev Total number of tokens in existence\n  */\n  function totalSupply() public view returns (uint256) {\n    return _totalSupply;\n  }\n\n  /**\n  * @dev Gets the balance of the specified address.\n  * @param owner The address to query the balance of.\n  * @return An uint256 representing the amount owned by the passed address.\n  */\n  function balanceOf(address owner) public view returns (uint256) {\n    return _balances[owner];\n  }\n\n  /**\n   * @dev Function to check the amount of tokens that an owner allowed to a spender.\n   * @param owner address The address which owns the funds.\n   * @param spender address The address which will spend the funds.\n   * @return A uint256 specifying the amount of tokens still available for the spender.\n   */\n  function allowance(\n    address owner,\n    address spender\n   )\n    public\n    view\n    returns (uint256)\n  {\n    return _allowed[owner][spender];\n  }\n\n  /**\n  * @dev Transfer token for a specified address\n  * @param to The address to transfer to.\n  * @param value The amount to be transferred.\n  */\n  function transfer(address to, uint256 value) public returns (bool) {\n    _transfer(msg.sender, to, value);\n    return true;\n  }\n\n  /**\n   * @dev Approve the passed address to spend the specified amount of tokens on behalf of msg.sender.\n   * Beware that changing an allowance with this method brings the risk that someone may use both the old\n   * and the new allowance by unfortunate transaction ordering. One possible solution to mitigate this\n   * race condition is to first reduce the spender's allowance to 0 and set the desired value afterwards:\n   * https://github.com/ethereum/EIPs/issues/20#issuecomment-263524729\n   * @param spender The address which will spend the funds.\n   * @param value The amount of tokens to be spent.\n   */\n  function approve(address spender, uint256 value) public returns (bool) {\n    require(spender != address(0));\n\n    _allowed[msg.sender][spender] = value;\n    emit Approval(msg.sender, spender, value);\n    return true;\n  }\n\n  /**\n   * @dev Transfer tokens from one address to another\n   * @param from address The address which you want to send tokens from\n   * @param to address The address which you want to transfer to\n   * @param value uint256 the amount of tokens to be transferred\n   */\n  function transferFrom(\n    address from,\n    address to,\n    uint256 value\n  )\n    public\n    returns (bool)\n  {\n    _allowed[from][msg.sender] = _allowed[from][msg.sender].sub(value);\n    _transfer(from, to, value);\n    return true;\n  }\n\n  /**\n   * @dev Increase the amount of tokens that an owner allowed to a spender.\n   * approve should be called when allowed_[_spender] == 0. To increment\n   * allowed value is better to use this function to avoid 2 calls (and wait until\n   * the first transaction is mined)\n   * From MonolithDAO Token.sol\n   * @param spender The address which will spend the funds.\n   * @param addedValue The amount of tokens to increase the allowance by.\n   */\n  function increaseAllowance(\n    address spender,\n    uint256 addedValue\n  )\n    public\n    returns (bool)\n  {\n    require(spender != address(0));\n\n    _allowed[msg.sender][spender] = (\n      _allowed[msg.sender][spender].add(addedValue));\n    emit Approval(msg.sender, spender, _allowed[msg.sender][spender]);\n    return true;\n  }\n\n  /**\n   * @dev Decrease the amount of tokens that an owner allowed to a spender.\n   * approve should be called when allowed_[_spender] == 0. To decrement\n   * allowed value is better to use this function to avoid 2 calls (and wait until\n   * the first transaction is mined)\n   * From MonolithDAO Token.sol\n   * @param spender The address which will spend the funds.\n   * @param subtractedValue The amount of tokens to decrease the allowance by.\n   */\n  function decreaseAllowance(\n    address spender,\n    uint256 subtractedValue\n  )\n    public\n    returns (bool)\n  {\n    require(spender != address(0));\n\n    _allowed[msg.sender][spender] = (\n      _allowed[msg.sender][spender].sub(subtractedValue));\n    emit Approval(msg.sender, spender, _allowed[msg.sender][spender]);\n    return true;\n  }\n\n  /**\n  * @dev Transfer token for a specified addresses\n  * @param from The address to transfer from.\n  * @param to The address to transfer to.\n  * @param value The amount to be transferred.\n  */\n  function _transfer(address from, address to, uint256 value) internal {\n    require(to != address(0));\n\n    _balances[from] = _balances[from].sub(value);\n    _balances[to] = _balances[to].add(value);\n    emit Transfer(from, to, value);\n  }\n\n  /**\n   * @dev Internal function that mints an amount of the token and assigns it to\n   * an account. This encapsulates the modification of balances such that the\n   * proper events are emitted.\n   * @param account The account that will receive the created tokens.\n   * @param value The amount that will be created.\n   */\n  function _mint(address account, uint256 value) internal {\n    require(account != address(0));\n\n    _totalSupply = _totalSupply.add(value);\n    _balances[account] = _balances[account].add(value);\n    emit Transfer(address(0), account, value);\n  }\n\n  /**\n   * @dev Internal function that burns an amount of the token of a given\n   * account.\n   * @param account The account whose tokens will be burnt.\n   * @param value The amount that will be burnt.\n   */\n  function _burn(address account, uint256 value) internal {\n    require(account != address(0));\n\n    _totalSupply = _totalSupply.sub(value);\n    _balances[account] = _balances[account].sub(value);\n    emit Transfer(account, address(0), value);\n  }\n\n  /**\n   * @dev Internal function that burns an amount of the token of a given\n   * account, deducting from the sender's allowance for said account. Uses the\n   * internal burn function.\n   * @param account The account whose tokens will be burnt.\n   * @param value The amount that will be burnt.\n   */\n  function _burnFrom(address account, uint256 value) internal {\n    // Should https://github.com/OpenZeppelin/zeppelin-solidity/issues/707 be accepted,\n    // this function needs to emit an event with the updated approval.\n    _allowed[account][msg.sender] = _allowed[account][msg.sender].sub(\n      value);\n    _burn(account, value);\n  }\n}\n",
  "sourcePath": "/Users/swerner/Documents/chainhack24/ordex/contracts/contracts/erc20.sol",
  "compiler": {
    "name": "solc",
    "version": "0.4.24+commit.e67f0147.Emscripten.clang"
  },
  "schemaVersion": "2.0.1",
  "updatedAt": "2018-11-18T11:45:23.979Z"
}