{
  "contractName": "OrDex",
  "abi": [
    {
      "anonymous": false,
      "inputs": [
        {
          "indexed": false,
          "name": "wallet_1",
          "type": "address"
        },
        {
          "indexed": false,
          "name": "wallet_2",
          "type": "address"
        },
        {
          "indexed": false,
          "name": "w1_token",
          "type": "address"
        },
        {
          "indexed": false,
          "name": "w2_token",
          "type": "address"
        },
        {
          "indexed": false,
          "name": "w1_amount",
          "type": "uint256"
        },
        {
          "indexed": false,
          "name": "w2_amount",
          "type": "uint256"
        }
      ],
      "name": "Swap",
      "type": "event"
    },
    {
      "constant": false,
      "inputs": [
        {
          "name": "wallet",
          "type": "address[2]"
        },
        {
          "name": "token",
          "type": "address[2]"
        },
        {
          "name": "amount",
          "type": "uint256[2]"
        },
        {
          "name": "nonce",
          "type": "uint256[2]"
        },
        {
          "name": "expiry",
          "type": "uint256[2]"
        },
        {
          "name": "r",
          "type": "bytes32[2]"
        },
        {
          "name": "s",
          "type": "bytes32[2]"
        },
        {
          "name": "v",
          "type": "uint8[2]"
        }
      ],
      "name": "swap",
      "outputs": [],
      "payable": false,
      "stateMutability": "nonpayable",
      "type": "function"
    }
  ],
  "bytecode": "0x608060405234801561001057600080fd5b50610a02806100206000396000f300608060405260043610610041576000357c0100000000000000000000000000000000000000000000000000000000900463ffffffff16806342869c9514610046575b600080fd5b34801561005257600080fd5b506101df600480360381019080806040019060028060200260405190810160405280929190826002602002808284378201915050505050919291929080604001906002806020026040519081016040528092919082600260200280828437820191505050505091929192908060400190600280602002604051908101604052809291908260026020028082843782019150505050509192919290806040019060028060200260405190810160405280929190826002602002808284378201915050505050919291929080604001906002806020026040519081016040528092919082600260200280828437820191505050505091929192908060400190600280602002604051908101604052809291908260026020028082843782019150505050509192919290806040019060028060200260405190810160405280929190826002602002808284378201915050505050919291929080604001906002806020026040519081016040528092919082600260200280828437820191505050505091929192905050506101e1565b005b600080600091505b60028260ff1610156109ca57868260ff1660028110151561020657fe5b6020020151868360ff1660028110151561021c57fe5b60200201518a8460ff1660028110151561023257fe5b60200201518b8560010360ff1660028110151561024b57fe5b60200201518b8660ff1660028110151561026157fe5b60200201518c8760010360ff1660028110151561027a57fe5b602002015160405160200180807f4f724465780000000000000000000000000000000000000000000000000000008152506005018781526020018681526020018573ffffffffffffffffffffffffffffffffffffffff1673ffffffffffffffffffffffffffffffffffffffff166c010000000000000000000000000281526014018473ffffffffffffffffffffffffffffffffffffffff1673ffffffffffffffffffffffffffffffffffffffff166c0100000000000000000000000002815260140183815260200182815260200196505050505050506040516020818303038152906040526040518082805190602001908083835b602083101515610394578051825260208201915060208101905060208303925061036f565b6001836020036101000a038019825116818451168082178552505050505050905001915050604051809103902090508060405160200180807f19457468657265756d205369676e6564204d6573736167653a0a333200000000815250601c0182600019166000191681526020019150506040516020818303038152906040526040518082805190602001908083835b6020831015156104485780518252602082019150602081019050602083039250610423565b6001836020036101000a03801982511681845116808217855250505050505090500191505060405180910390209050600015156000808c8560ff1660028110151561048f57fe5b602002015173ffffffffffffffffffffffffffffffffffffffff1673ffffffffffffffffffffffffffffffffffffffff1681526020019081526020016000206000898560ff166002811015156104e157fe5b6020020151815260200190815260200160002060009054906101000a900460ff16151514151561050d57fe5b60016000808c8560ff1660028110151561052357fe5b602002015173ffffffffffffffffffffffffffffffffffffffff1673ffffffffffffffffffffffffffffffffffffffff1681526020019081526020016000206000898560ff1660028110151561057557fe5b6020020151815260200190815260200160002060006101000a81548160ff021916908315150217905550858260ff166002811015156105b057fe5b602002015143111515156105c057fe5b898260ff166002811015156105d157fe5b602002015173ffffffffffffffffffffffffffffffffffffffff16600182858560ff1660028110151561060057fe5b6020020151888660ff1660028110151561061657fe5b6020020151888760ff1660028110151561062c57fe5b6020020151604051600081526020016040526040518085600019166000191681526020018460ff1660ff1681526020018360001916600019168152602001826000191660001916815260200194505050505060206040516020810390808403906000865af11580156106a2573d6000803e3d6000fd5b5050506020604051035173ffffffffffffffffffffffffffffffffffffffff161415156106cb57fe5b888260ff166002811015156106dc57fe5b602002015173ffffffffffffffffffffffffffffffffffffffff166323b872dd8b8460ff1660028110151561070d57fe5b60200201518c8560010360ff1660028110151561072657fe5b60200201518b8660ff1660028110151561073c57fe5b60200201516040518463ffffffff167c0100000000000000000000000000000000000000000000000000000000028152600401808473ffffffffffffffffffffffffffffffffffffffff1673ffffffffffffffffffffffffffffffffffffffff1681526020018373ffffffffffffffffffffffffffffffffffffffff1673ffffffffffffffffffffffffffffffffffffffff1681526020018281526020019350505050602060405180830381600087803b1580156107f957600080fd5b505af115801561080d573d6000803e3d6000fd5b505050506040513d602081101561082357600080fd5b8101908080519060200190929190505050151561083c57fe5b7f20efd6d5195b7b50273f01cd79a27989255356f9f13293edc53ee142accfdb758a600060028110151561086c57fe5b60200201518b600160028110151561088057fe5b60200201518b600060028110151561089457fe5b60200201518c60016002811015156108a857fe5b60200201518c60006002811015156108bc57fe5b60200201518d60016002811015156108d057fe5b6020020151604051808773ffffffffffffffffffffffffffffffffffffffff1673ffffffffffffffffffffffffffffffffffffffff1681526020018673ffffffffffffffffffffffffffffffffffffffff1673ffffffffffffffffffffffffffffffffffffffff1681526020018573ffffffffffffffffffffffffffffffffffffffff1673ffffffffffffffffffffffffffffffffffffffff1681526020018473ffffffffffffffffffffffffffffffffffffffff1673ffffffffffffffffffffffffffffffffffffffff168152602001838152602001828152602001965050505050505060405180910390a181806001019250506101e9565b505050505050505050505600a165627a7a72305820e49a80a553471b4645793c3b865bedc2b86c33a036dad063741dc8bbdcfeee380029",
  "source": "pragma solidity ^0.4.24;\nimport \"./erc20.sol\";\n\ncontract OrDex {\n\n  mapping (address => mapping (uint256 => bool)) addressNonceUsed;\n\n  event Swap(address wallet_1, address wallet_2, IERC20 w1_token, IERC20 w2_token, uint256 w1_amount, uint256 w2_amount);\n\n  function swap(address[2] wallet, IERC20[2] token, uint256[2] amount, uint256[2] nonce, uint256[2] expiry, bytes32[2] r, bytes32[2] s, uint8[2] v) public {\n\n    for (uint8 i = 0; i < 2; i++) {\n      bytes32 authorization = keccak256(abi.encodePacked(\n        'OrDex',\n        nonce[i],\n        expiry[i],\n  \t\t\taddress(token[i]),\n  \t\t\taddress(token[1-i]),\n  \t\t\tamount[i],\n  \t\t  amount[1-i]));\n\n        authorization = keccak256(abi.encodePacked(\n          \"\\x19Ethereum Signed Message:\\n32\",\n          authorization));\n\n        assert(addressNonceUsed[wallet[i]][nonce[i]] == false);\n        addressNonceUsed[wallet[i]][nonce[i]] = true;\n\n        assert(block.number <= expiry[i]);\n\n        assert(ecrecover(authorization, v[i], r[i], s[i]) == wallet[i]);\n\n        assert(token[i].transferFrom(wallet[i], wallet[1-i], amount[i]));\n        emit Swap(wallet[0], wallet[1], token[0], token[1], amount[0], amount[1]);\n    }\n\t}\n}\n",
  "sourcePath": "/Users/swerner/Documents/chainhack/contracts/OrDex.sol",
  "compiler": {
    "name": "solc",
    "version": "0.4.24+commit.e67f0147.Emscripten.clang"
  },
  "schemaVersion": "2.0.1",
  "updatedAt": "2018-11-17T19:34:06.774Z"
}