{
  "contractName": "OrDex",
  "abi": [
    {
      "anonymous": false,
      "inputs": [
        {
          "indexed": false,
          "name": "wallet_1",
          "type": "address"
        },
        {
          "indexed": false,
          "name": "wallet_2",
          "type": "address"
        },
        {
          "indexed": false,
          "name": "w1_token",
          "type": "address"
        },
        {
          "indexed": false,
          "name": "w2_token",
          "type": "address"
        },
        {
          "indexed": false,
          "name": "w1_amount",
          "type": "uint256"
        },
        {
          "indexed": false,
          "name": "w2_amount",
          "type": "uint256"
        }
      ],
      "name": "Swap",
      "type": "event"
    },
    {
      "constant": false,
      "inputs": [
        {
          "name": "wallet",
          "type": "address[2]"
        },
        {
          "name": "token",
          "type": "address[2]"
        },
        {
          "name": "amount",
          "type": "uint256[2]"
        },
        {
          "name": "nonce",
          "type": "uint256[2]"
        },
        {
          "name": "expiry",
          "type": "uint256[2]"
        }
      ],
      "name": "swap",
      "outputs": [],
      "payable": false,
      "stateMutability": "nonpayable",
      "type": "function"
    }
  ],
  "bytecode": "0x608060405234801561001057600080fd5b50610867806100206000396000f300608060405260043610610041576000357c0100000000000000000000000000000000000000000000000000000000900463ffffffff168063cd98a51c14610046575b600080fd5b34801561005257600080fd5b5061015260048036038101908080604001906002806020026040519081016040528092919082600260200280828437820191505050505091929192908060400190600280602002604051908101604052809291908260026020028082843782019150505050509192919290806040019060028060200260405190810160405280929190826002602002808284378201915050505050919291929080604001906002806020026040519081016040528092919082600260200280828437820191505050505091929192908060400190600280602002604051908101604052809291908260026020028082843782019150505050509192919290505050610154565b005b600080600091505b60028260ff16101561083257838260ff1660028110151561017957fe5b6020020151838360ff1660028110151561018f57fe5b6020020151878460ff166002811015156101a557fe5b6020020151888560010360ff166002811015156101be57fe5b6020020151888660ff166002811015156101d457fe5b6020020151898760010360ff166002811015156101ed57fe5b602002015160405160200180807f4f724465780000000000000000000000000000000000000000000000000000008152506005018781526020018681526020018573ffffffffffffffffffffffffffffffffffffffff1673ffffffffffffffffffffffffffffffffffffffff166c010000000000000000000000000281526014018473ffffffffffffffffffffffffffffffffffffffff1673ffffffffffffffffffffffffffffffffffffffff166c0100000000000000000000000002815260140183815260200182815260200196505050505050506040516020818303038152906040526040518082805190602001908083835b60208310151561030757805182526020820191506020810190506020830392506102e2565b6001836020036101000a038019825116818451168082178552505050505050905001915050604051809103902090508060405160200180807f19457468657265756d205369676e6564204d6573736167653a0a333200000000815250601c0182600019166000191681526020019150506040516020818303038152906040526040518082805190602001908083835b6020831015156103bb5780518252602082019150602081019050602083039250610396565b6001836020036101000a0380198251168184511680821785525050505050509050019150506040518091039020905060001515600080898560ff1660028110151561040257fe5b602002015173ffffffffffffffffffffffffffffffffffffffff1673ffffffffffffffffffffffffffffffffffffffff1681526020019081526020016000206000868560ff1660028110151561045457fe5b6020020151815260200190815260200160002060009054906101000a900460ff16151514151561048057fe5b6001600080898560ff1660028110151561049657fe5b602002015173ffffffffffffffffffffffffffffffffffffffff1673ffffffffffffffffffffffffffffffffffffffff1681526020019081526020016000206000868560ff166002811015156104e857fe5b6020020151815260200190815260200160002060006101000a81548160ff021916908315150217905550828260ff1660028110151561052357fe5b6020020151431115151561053357fe5b858260ff1660028110151561054457fe5b602002015173ffffffffffffffffffffffffffffffffffffffff166323b872dd888460ff1660028110151561057557fe5b6020020151898560010360ff1660028110151561058e57fe5b6020020151888660ff166002811015156105a457fe5b60200201516040518463ffffffff167c0100000000000000000000000000000000000000000000000000000000028152600401808473ffffffffffffffffffffffffffffffffffffffff1673ffffffffffffffffffffffffffffffffffffffff1681526020018373ffffffffffffffffffffffffffffffffffffffff1673ffffffffffffffffffffffffffffffffffffffff1681526020018281526020019350505050602060405180830381600087803b15801561066157600080fd5b505af1158015610675573d6000803e3d6000fd5b505050506040513d602081101561068b57600080fd5b810190808051906020019092919050505015156106a457fe5b7f20efd6d5195b7b50273f01cd79a27989255356f9f13293edc53ee142accfdb758760006002811015156106d457fe5b60200201518860016002811015156106e857fe5b60200201518860006002811015156106fc57fe5b602002015189600160028110151561071057fe5b602002015189600060028110151561072457fe5b60200201518a600160028110151561073857fe5b6020020151604051808773ffffffffffffffffffffffffffffffffffffffff1673ffffffffffffffffffffffffffffffffffffffff1681526020018673ffffffffffffffffffffffffffffffffffffffff1673ffffffffffffffffffffffffffffffffffffffff1681526020018573ffffffffffffffffffffffffffffffffffffffff1673ffffffffffffffffffffffffffffffffffffffff1681526020018473ffffffffffffffffffffffffffffffffffffffff1673ffffffffffffffffffffffffffffffffffffffff168152602001838152602001828152602001965050505050505060405180910390a1818060010192505061015c565b505050505050505600a165627a7a723058202a181a840f59643757eb483a95fb832917d3de0725c176da62a90ae83ebcb4500029",
  "source": "pragma solidity ^0.4.24;\nimport \"./ierc20.sol\";\n\ncontract OrDex {\n\n  mapping (address => mapping (uint256 => bool)) addressNonceUsed;\n\n  event Swap(address wallet_1, address wallet_2, IERC20 w1_token, IERC20 w2_token, uint256 w1_amount, uint256 w2_amount);\n\n  function swap(address[2] wallet, IERC20[2] token, uint256[2] amount, uint256[2] nonce, uint256[2] expiry) public {\n\n    for (uint8 i = 0; i < 2; i++) {\n      bytes32 authorization = keccak256(abi.encodePacked(\n        'OrDex',\n        nonce[i],\n        expiry[i],\n  \t\t\taddress(token[i]),\n  \t\t\taddress(token[1-i]),\n  \t\t\tamount[i],\n  \t\t  amount[1-i]));\n\n        authorization = keccak256(abi.encodePacked(\n          \"\\x19Ethereum Signed Message:\\n32\",\n          authorization));\n\n        assert(addressNonceUsed[wallet[i]][nonce[i]] == false);\n        addressNonceUsed[wallet[i]][nonce[i]] = true;\n\n        assert(block.number <= expiry[i]);\n\n        assert(token[i].transferFrom(wallet[i], wallet[1-i], amount[i]));\n        emit Swap(wallet[0], wallet[1], token[0], token[1], amount[0], amount[1]);\n    }\n\t}\n}\n",
  "sourcePath": "/Users/swerner/Documents/chainhack24/ordex/contracts/contracts/OrDex.sol",
  "compiler": {
    "name": "solc",
    "version": "0.4.24+commit.e67f0147.Emscripten.clang"
  },
  "schemaVersion": "2.0.1",
  "updatedAt": "2018-11-18T12:23:11.274Z"
}